{
    "_format": "hh-sol-artifact-1",
    "contractName": "SleepRewardManager",
    "sourceName": "contracts/SleepRewardToken.sol",
    "abi": [
        {
            "inputs": [
                {
                    "internalType": "address",
                    "name": "_verifier",
                    "type": "address"
                },
                {
                    "internalType": "address",
                    "name": "_token",
                    "type": "address"
                }
            ],
            "stateMutability": "nonpayable",
            "type": "constructor"
        },
        {
            "anonymous": false,
            "inputs": [
                {
                    "indexed": true,
                    "internalType": "address",
                    "name": "user",
                    "type": "address"
                },
                {
                    "indexed": false,
                    "internalType": "uint256",
                    "name": "epoch",
                    "type": "uint256"
                },
                {
                    "indexed": false,
                    "internalType": "uint256",
                    "name": "streak",
                    "type": "uint256"
                },
                {
                    "indexed": false,
                    "internalType": "uint256",
                    "name": "rewardAmount",
                    "type": "uint256"
                }
            ],
            "name": "RewardClaimed",
            "type": "event"
        },
        {
            "inputs": [],
            "name": "BASE_REWARD_AMOUNT",
            "outputs": [
                {
                    "internalType": "uint256",
                    "name": "",
                    "type": "uint256"
                }
            ],
            "stateMutability": "view",
            "type": "function"
        },
        {
            "inputs": [],
            "name": "EPOCH_LENGTH",
            "outputs": [
                {
                    "internalType": "uint256",
                    "name": "",
                    "type": "uint256"
                }
            ],
            "stateMutability": "view",
            "type": "function"
        },
        {
            "inputs": [
                {
                    "internalType": "uint256",
                    "name": "_streak",
                    "type": "uint256"
                }
            ],
            "name": "calculateReward",
            "outputs": [
                {
                    "internalType": "uint256",
                    "name": "",
                    "type": "uint256"
                }
            ],
            "stateMutability": "pure",
            "type": "function"
        },
        {
            "inputs": [
                {
                    "internalType": "address",
                    "name": "_user",
                    "type": "address"
                },
                {
                    "internalType": "uint256[2]",
                    "name": "a",
                    "type": "uint256[2]"
                },
                {
                    "internalType": "uint256[2][2]",
                    "name": "b",
                    "type": "uint256[2][2]"
                },
                {
                    "internalType": "uint256[2]",
                    "name": "c",
                    "type": "uint256[2]"
                },
                {
                    "internalType": "uint256[1]",
                    "name": "publicInput",
                    "type": "uint256[1]"
                }
            ],
            "name": "claimReward",
            "outputs": [],
            "stateMutability": "nonpayable",
            "type": "function"
        },
        {
            "inputs": [
                {
                    "internalType": "address",
                    "name": "",
                    "type": "address"
                }
            ],
            "name": "lastClaimedEpoch",
            "outputs": [
                {
                    "internalType": "uint256",
                    "name": "",
                    "type": "uint256"
                }
            ],
            "stateMutability": "view",
            "type": "function"
        },
        {
            "inputs": [
                {
                    "internalType": "address",
                    "name": "",
                    "type": "address"
                }
            ],
            "name": "streak",
            "outputs": [
                {
                    "internalType": "uint256",
                    "name": "",
                    "type": "uint256"
                }
            ],
            "stateMutability": "view",
            "type": "function"
        },
        {
            "inputs": [],
            "name": "token",
            "outputs": [
                {
                    "internalType": "contract EepyToken",
                    "name": "",
                    "type": "address"
                }
            ],
            "stateMutability": "view",
            "type": "function"
        },
        {
            "inputs": [],
            "name": "verifier",
            "outputs": [
                {
                    "internalType": "contract Groth16Verifier",
                    "name": "",
                    "type": "address"
                }
            ],
            "stateMutability": "view",
            "type": "function"
        }
    ],
    "bytecode": "0x608060405234801561001057600080fd5b5060405161086d38038061086d83398101604081905261002f9161007c565b600080546001600160a01b039384166001600160a01b031991821617909155600180549290931691161790556100af565b80516001600160a01b038116811461007757600080fd5b919050565b6000806040838503121561008f57600080fd5b61009883610060565b91506100a660208401610060565b90509250929050565b6107af806100be6000396000f3fe608060405234801561001057600080fd5b50600436106100885760003560e01c8063d2d7231f1161005b578063d2d7231f146100fd578063f41c33e914610110578063fc0c546a14610130578063fee221381461014357600080fd5b80632b7ac3f31461008d5780636a2a6518146100bd578063849bdccf146100eb578063ac4746ab146100f3575b600080fd5b6000546100a0906001600160a01b031681565b6040516001600160a01b0390911681526020015b60405180910390f35b6100dd6100cb366004610449565b60036020526000908152604090205481565b6040519081526020016100b4565b6100dd600a81565b6100dd6201518081565b6100dd61010b36600461046b565b610158565b6100dd61011e366004610449565b60026020526000908152604090205481565b6001546100a0906001600160a01b031681565b610156610151366004610536565b61016b565b005b600061016582600a61063b565b92915050565b600061017a6201518042610652565b6001600160a01b0387166000908152600260205260409020549091508082116101ea5760405162461bcd60e51b815260206004820152601a60248201527f416c726561647920636c61696d656420746869732065706f636800000000000060448201526064015b60405180910390fd5b6000546040516343753b4d60e01b81526001600160a01b03909116906343753b4d9061022090899089908990899060040161069d565b602060405180830381865afa15801561023d573d6000803e3d6000fd5b505050506040513d601f19601f820116820180604052508101906102619190610744565b6102a05760405162461bcd60e51b815260206004820152601060248201526f24b73b30b634b2102d2590383937b7b360811b60448201526064016101e1565b806000036102c9576001600160a01b03871660009081526003602052604090206001905561032b565b6102d4816001610766565b820361030e576001600160a01b0387166000908152600360205260408120805460019290610303908490610766565b9091555061032b9050565b6001600160a01b0387166000908152600360205260409020600190555b6001600160a01b03871660009081526003602052604081205461034d90610158565b6001600160a01b038981166000818152600260205260409081902087905560015490516340c10f1960e01b81526004810192909252602482018490529293509116906340c10f1990604401600060405180830381600087803b1580156103b257600080fd5b505af11580156103c6573d6000803e3d6000fd5b505050506001600160a01b038816600081815260036020908152604091829020548251878152918201529081018390527f812be816db82c66cd18ca8457005cd84689642d8ac4d38599cc6af444a2dc72a9060600160405180910390a25050505050505050565b80356001600160a01b038116811461044457600080fd5b919050565b60006020828403121561045b57600080fd5b6104648261042d565b9392505050565b60006020828403121561047d57600080fd5b5035919050565b634e487b7160e01b600052604160045260246000fd5b6040805190810167ffffffffffffffff811182821017156104bd576104bd610484565b60405290565b6040516020810167ffffffffffffffff811182821017156104bd576104bd610484565b600082601f8301126104f757600080fd5b6104ff61049a565b80604084018581111561051157600080fd5b845b8181101561052b578035845260209384019301610513565b509095945050505050565b600080600080600061014080878903121561055057600080fd5b6105598761042d565b9550602061056989828a016104e6565b955088607f89011261057a57600080fd5b61058261049a565b8060e08a018b81111561059457600080fd5b60608b015b818110156105b9576105ab8d826104e6565b845292840192604001610599565b508197506105c78c826104e6565b96505050508861013f8901126105dc57600080fd5b6105e46104c3565b91880191808a8411156105f657600080fd5b6101208a015b8481101561061357803583529183019183016105fc565b50809450505050509295509295909350565b634e487b7160e01b600052601160045260246000fd5b808202811582820484141761016557610165610625565b60008261066f57634e487b7160e01b600052601260045260246000fd5b500490565b8060005b6002811015610697578151845260209384019390910190600101610678565b50505050565b61012081016106ac8287610674565b60408083018660005b60028082106106c457506106ff565b82518460005b838110156106e85782518252602092830192909101906001016106ca565b5050509284019250602091909101906001016106b5565b5050505061071060c0830185610674565b61010082018360005b6001811015610738578151835260209283019290910190600101610719565b50505095945050505050565b60006020828403121561075657600080fd5b8151801515811461046457600080fd5b808201808211156101655761016561062556fea2646970667358221220be5c4372ba814ed4a9d9248981dd0490b31b0691c4643d0080f84ba49af57aec64736f6c63430008140033",
    "linkReferences": {},
    "deployedLinkReferences": {}
}